{
  "_format": "hh-sol-artifact-1",
  "contractName": "MyBlocklockReceiver",
  "sourceName": "contracts/MyBlocklockReceiver.sol",
  "abi": [
    {
      "inputs": [
        {
          "internalType": "address",
          "name": "blocklockContract",
          "type": "address"
        }
      ],
      "stateMutability": "nonpayable",
      "type": "constructor"
    },
    {
      "anonymous": false,
      "inputs": [
        {
          "indexed": false,
          "internalType": "uint256",
          "name": "requestID",
          "type": "uint256"
        },
        {
          "indexed": false,
          "internalType": "uint32",
          "name": "callbackGasLimit",
          "type": "uint32"
        },
        {
          "indexed": false,
          "internalType": "uint256",
          "name": "requestPrice",
          "type": "uint256"
        }
      ],
      "name": "BlocklockReqeustCreated",
      "type": "event"
    },
    {
      "anonymous": false,
      "inputs": [
        {
          "indexed": false,
          "internalType": "uint256",
          "name": "requestID",
          "type": "uint256"
        },
        {
          "indexed": false,
          "internalType": "bytes",
          "name": "decryptionKey",
          "type": "bytes"
        }
      ],
      "name": "CallbackReceivedWithoutDecryption",
      "type": "event"
    },
    {
      "anonymous": false,
      "inputs": [
        {
          "indexed": true,
          "internalType": "address",
          "name": "sender",
          "type": "address"
        },
        {
          "indexed": false,
          "internalType": "uint256",
          "name": "amount",
          "type": "uint256"
        }
      ],
      "name": "Funded",
      "type": "event"
    },
    {
      "anonymous": false,
      "inputs": [
        {
          "indexed": true,
          "internalType": "uint256",
          "name": "subscriptionId",
          "type": "uint256"
        }
      ],
      "name": "NewSubscriptionId",
      "type": "event"
    },
    {
      "anonymous": false,
      "inputs": [
        {
          "indexed": true,
          "internalType": "address",
          "name": "from",
          "type": "address"
        },
        {
          "indexed": true,
          "internalType": "address",
          "name": "to",
          "type": "address"
        }
      ],
      "name": "OwnershipTransferRequested",
      "type": "event"
    },
    {
      "anonymous": false,
      "inputs": [
        {
          "indexed": true,
          "internalType": "address",
          "name": "from",
          "type": "address"
        },
        {
          "indexed": true,
          "internalType": "address",
          "name": "to",
          "type": "address"
        }
      ],
      "name": "OwnershipTransferred",
      "type": "event"
    },
    {
      "anonymous": false,
      "inputs": [
        {
          "indexed": false,
          "internalType": "address",
          "name": "",
          "type": "address"
        },
        {
          "indexed": false,
          "internalType": "uint256",
          "name": "",
          "type": "uint256"
        }
      ],
      "name": "Received",
      "type": "event"
    },
    {
      "anonymous": false,
      "inputs": [
        {
          "indexed": true,
          "internalType": "address",
          "name": "recipient",
          "type": "address"
        },
        {
          "indexed": false,
          "internalType": "uint256",
          "name": "amount",
          "type": "uint256"
        }
      ],
      "name": "Withdrawn",
      "type": "event"
    },
    {
      "inputs": [],
      "name": "acceptOwnership",
      "outputs": [],
      "stateMutability": "nonpayable",
      "type": "function"
    },
    {
      "inputs": [],
      "name": "blocklock",
      "outputs": [
        {
          "internalType": "contract IBlocklockSender",
          "name": "",
          "type": "address"
        }
      ],
      "stateMutability": "view",
      "type": "function"
    },
    {
      "inputs": [
        {
          "internalType": "address",
          "name": "to",
          "type": "address"
        }
      ],
      "name": "cancelSubscription",
      "outputs": [],
      "stateMutability": "nonpayable",
      "type": "function"
    },
    {
      "inputs": [
        {
          "internalType": "uint32",
          "name": "callbackGasLimit",
          "type": "uint32"
        },
        {
          "internalType": "bytes",
          "name": "condition",
          "type": "bytes"
        },
        {
          "components": [
            {
              "components": [
                {
                  "internalType": "uint256[2]",
                  "name": "x",
                  "type": "uint256[2]"
                },
                {
                  "internalType": "uint256[2]",
                  "name": "y",
                  "type": "uint256[2]"
                }
              ],
              "internalType": "struct BLS.PointG2",
              "name": "u",
              "type": "tuple"
            },
            {
              "internalType": "bytes",
              "name": "v",
              "type": "bytes"
            },
            {
              "internalType": "bytes",
              "name": "w",
              "type": "bytes"
            }
          ],
          "internalType": "struct TypesLib.Ciphertext",
          "name": "_encryptedValue",
          "type": "tuple"
        }
      ],
      "name": "createBlocklockRequestWithDirectFunding",
      "outputs": [
        {
          "internalType": "uint256",
          "name": "",
          "type": "uint256"
        },
        {
          "internalType": "uint256",
          "name": "",
          "type": "uint256"
        }
      ],
      "stateMutability": "payable",
      "type": "function"
    },
    {
      "inputs": [
        {
          "internalType": "uint32",
          "name": "callbackGasLimit",
          "type": "uint32"
        },
        {
          "internalType": "bytes",
          "name": "condition",
          "type": "bytes"
        },
        {
          "components": [
            {
              "components": [
                {
                  "internalType": "uint256[2]",
                  "name": "x",
                  "type": "uint256[2]"
                },
                {
                  "internalType": "uint256[2]",
                  "name": "y",
                  "type": "uint256[2]"
                }
              ],
              "internalType": "struct BLS.PointG2",
              "name": "u",
              "type": "tuple"
            },
            {
              "internalType": "bytes",
              "name": "v",
              "type": "bytes"
            },
            {
              "internalType": "bytes",
              "name": "w",
              "type": "bytes"
            }
          ],
          "internalType": "struct TypesLib.Ciphertext",
          "name": "_encryptedValue",
          "type": "tuple"
        }
      ],
      "name": "createBlocklockRequestWithSubscription",
      "outputs": [
        {
          "internalType": "uint256",
          "name": "",
          "type": "uint256"
        }
      ],
      "stateMutability": "nonpayable",
      "type": "function"
    },
    {
      "inputs": [],
      "name": "createSubscriptionAndFundNative",
      "outputs": [],
      "stateMutability": "payable",
      "type": "function"
    },
    {
      "inputs": [],
      "name": "decryptedValue",
      "outputs": [
        {
          "internalType": "uint256",
          "name": "",
          "type": "uint256"
        }
      ],
      "stateMutability": "view",
      "type": "function"
    },
    {
      "inputs": [],
      "name": "encryptedValue",
      "outputs": [
        {
          "components": [
            {
              "internalType": "uint256[2]",
              "name": "x",
              "type": "uint256[2]"
            },
            {
              "internalType": "uint256[2]",
              "name": "y",
              "type": "uint256[2]"
            }
          ],
          "internalType": "struct BLS.PointG2",
          "name": "u",
          "type": "tuple"
        },
        {
          "internalType": "bytes",
          "name": "v",
          "type": "bytes"
        },
        {
          "internalType": "bytes",
          "name": "w",
          "type": "bytes"
        }
      ],
      "stateMutability": "view",
      "type": "function"
    },
    {
      "inputs": [],
      "name": "fundContractNative",
      "outputs": [],
      "stateMutability": "payable",
      "type": "function"
    },
    {
      "inputs": [],
      "name": "getBalance",
      "outputs": [
        {
          "internalType": "uint256",
          "name": "",
          "type": "uint256"
        }
      ],
      "stateMutability": "view",
      "type": "function"
    },
    {
      "inputs": [
        {
          "internalType": "uint256",
          "name": "requestId",
          "type": "uint256"
        }
      ],
      "name": "isInFlight",
      "outputs": [
        {
          "internalType": "bool",
          "name": "",
          "type": "bool"
        }
      ],
      "stateMutability": "view",
      "type": "function"
    },
    {
      "inputs": [],
      "name": "owner",
      "outputs": [
        {
          "internalType": "address",
          "name": "",
          "type": "address"
        }
      ],
      "stateMutability": "view",
      "type": "function"
    },
    {
      "inputs": [
        {
          "internalType": "uint256",
          "name": "subId",
          "type": "uint256"
        }
      ],
      "name": "pendingRequestExists",
      "outputs": [
        {
          "internalType": "bool",
          "name": "",
          "type": "bool"
        }
      ],
      "stateMutability": "view",
      "type": "function"
    },
    {
      "inputs": [
        {
          "internalType": "uint256",
          "name": "requestId",
          "type": "uint256"
        },
        {
          "internalType": "bytes",
          "name": "decryptionKey",
          "type": "bytes"
        }
      ],
      "name": "receiveBlocklock",
      "outputs": [],
      "stateMutability": "nonpayable",
      "type": "function"
    },
    {
      "inputs": [],
      "name": "requestId",
      "outputs": [
        {
          "internalType": "uint256",
          "name": "",
          "type": "uint256"
        }
      ],
      "stateMutability": "view",
      "type": "function"
    },
    {
      "inputs": [
        {
          "internalType": "address",
          "name": "_blocklock",
          "type": "address"
        }
      ],
      "name": "setBlocklock",
      "outputs": [],
      "stateMutability": "nonpayable",
      "type": "function"
    },
    {
      "inputs": [
        {
          "internalType": "uint256",
          "name": "subId",
          "type": "uint256"
        }
      ],
      "name": "setSubId",
      "outputs": [],
      "stateMutability": "nonpayable",
      "type": "function"
    },
    {
      "inputs": [],
      "name": "subscriptionId",
      "outputs": [
        {
          "internalType": "uint256",
          "name": "",
          "type": "uint256"
        }
      ],
      "stateMutability": "view",
      "type": "function"
    },
    {
      "inputs": [],
      "name": "topUpSubscriptionNative",
      "outputs": [],
      "stateMutability": "payable",
      "type": "function"
    },
    {
      "inputs": [
        {
          "internalType": "address",
          "name": "to",
          "type": "address"
        }
      ],
      "name": "transferOwnership",
      "outputs": [],
      "stateMutability": "nonpayable",
      "type": "function"
    },
    {
      "inputs": [
        {
          "internalType": "address[]",
          "name": "consumers",
          "type": "address[]"
        }
      ],
      "name": "updateSubscription",
      "outputs": [],
      "stateMutability": "nonpayable",
      "type": "function"
    },
    {
      "inputs": [
        {
          "internalType": "uint256",
          "name": "amount",
          "type": "uint256"
        },
        {
          "internalType": "address",
          "name": "recipient",
          "type": "address"
        }
      ],
      "name": "withdrawNative",
      "outputs": [],
      "stateMutability": "nonpayable",
      "type": "function"
    },
    {
      "stateMutability": "payable",
      "type": "receive"
    }
  ],
  "bytecode": "0x608060405234801561001057600080fd5b5060405161321538038061321583398181016040528101906100329190610303565b80338060008073ffffffffffffffffffffffffffffffffffffffff168273ffffffffffffffffffffffffffffffffffffffff16036100a5576040517f08c379a000000000000000000000000000000000000000000000000000000000815260040161009c9061038d565b60405180910390fd5b816000806101000a81548173ffffffffffffffffffffffffffffffffffffffff021916908373ffffffffffffffffffffffffffffffffffffffff160217905550600073ffffffffffffffffffffffffffffffffffffffff168173ffffffffffffffffffffffffffffffffffffffff1614610129576101288161017460201b60201c565b5b50505080600260006101000a81548173ffffffffffffffffffffffffffffffffffffffff021916908373ffffffffffffffffffffffffffffffffffffffff1602179055505050610419565b3373ffffffffffffffffffffffffffffffffffffffff168173ffffffffffffffffffffffffffffffffffffffff16036101e2576040517f08c379a00000000000000000000000000000000000000000000000000000000081526004016101d9906103f9565b60405180910390fd5b80600160006101000a81548173ffffffffffffffffffffffffffffffffffffffff021916908373ffffffffffffffffffffffffffffffffffffffff1602179055508073ffffffffffffffffffffffffffffffffffffffff1660008054906101000a900473ffffffffffffffffffffffffffffffffffffffff1673ffffffffffffffffffffffffffffffffffffffff167fed8889f560326eb138920d842192f0eb3dd22b4f139c87a2c57538e05bae127860405160405180910390a350565b600080fd5b600073ffffffffffffffffffffffffffffffffffffffff82169050919050565b60006102d0826102a5565b9050919050565b6102e0816102c5565b81146102eb57600080fd5b50565b6000815190506102fd816102d7565b92915050565b600060208284031215610319576103186102a0565b5b6000610327848285016102ee565b91505092915050565b600082825260208201905092915050565b7f43616e6e6f7420736574206f776e657220746f207a65726f0000000000000000600082015250565b6000610377601883610330565b915061038282610341565b602082019050919050565b600060208201905081810360008301526103a68161036a565b9050919050565b7f43616e6e6f74207472616e7366657220746f2073656c66000000000000000000600082015250565b60006103e3601783610330565b91506103ee826103ad565b602082019050919050565b60006020820190508181036000830152610412816103d6565b9050919050565b612ded806104286000396000f3fe6080604052600436106101385760003560e01c806387ed62db116100ab578063b96dbba71161006f578063b96dbba714610412578063cd802c911461041c578063e64a66ea14610459578063e9d5c7f014610463578063f2fde38b14610494578063f810313e146104bd57610178565b806387ed62db1461032d5780638da5cb5b1461036a57806393b9740a1461039557806393d81d58146103c0578063b8ca8dd8146103e957610178565b806341af6c87116100fd57806341af6c87146102315780634fa26d401461026e5780635d9418021461029757806379ba5097146102c057806380980043146102d757806386e560be1461030057610178565b80626d6cae1461017d57806309c1ba2e146101a857806312065fe0146101d35780631d2b2afd146101fe57806336bfffed1461020857610178565b36610178577f88a5966d370b9919b20f3e2c13ff65706f196a4e32cc2c12bf57088f88525874333460405161016e92919061182b565b60405180910390a1005b600080fd5b34801561018957600080fd5b506101926104e8565b60405161019f9190611854565b60405180910390f35b3480156101b457600080fd5b506101bd6104ee565b6040516101ca9190611854565b60405180910390f35b3480156101df57600080fd5b506101e86104f4565b6040516101f59190611854565b60405180910390f35b6102066104fc565b005b34801561021457600080fd5b5061022f600480360381019061022a91906118de565b6105d3565b005b34801561023d57600080fd5b5061025860048036038101906102539190611957565b6106f8565b604051610265919061199f565b60405180910390f35b34801561027a57600080fd5b50610295600480360381019061029091906119e6565b61079d565b005b3480156102a357600080fd5b506102be60048036038101906102b99190611a69565b610858565b005b3480156102cc57600080fd5b506102d56108f8565b005b3480156102e357600080fd5b506102fe60048036038101906102f99190611957565b610a8d565b005b34801561030c57600080fd5b50610315610acc565b60405161032493929190611c33565b60405180910390f35b34801561033957600080fd5b50610354600480360381019061034f9190611cd8565b610c88565b6040516103619190611854565b60405180910390f35b34801561037657600080fd5b5061037f610d03565b60405161038c9190611d68565b60405180910390f35b3480156103a157600080fd5b506103aa610d2c565b6040516103b79190611de2565b60405180910390f35b3480156103cc57600080fd5b506103e760048036038101906103e291906119e6565b610d52565b005b3480156103f557600080fd5b50610410600480360381019061040b9190611dfd565b610d66565b005b61041a610e51565b005b34801561042857600080fd5b50610443600480360381019061043e9190611957565b610ef9565b604051610450919061199f565b60405180910390f35b610461610f9e565b005b61047d60048036038101906104789190611cd8565b611031565b60405161048b929190611e3d565b60405180910390f35b3480156104a057600080fd5b506104bb60048036038101906104b691906119e6565b6110ef565b005b3480156104c957600080fd5b506104d2611103565b6040516104df9190611854565b60405180910390f35b60045481565b60035481565b600047905090565b600060035403610541576040517f08c379a000000000000000000000000000000000000000000000000000000000815260040161053890611ec3565b60405180910390fd5b600260009054906101000a900473ffffffffffffffffffffffffffffffffffffffff1673ffffffffffffffffffffffffffffffffffffffff166395b55cfc346003546040518363ffffffff1660e01b815260040161059f9190611854565b6000604051808303818588803b1580156105b857600080fd5b505af11580156105cc573d6000803e3d6000fd5b5050505050565b6105db611109565b600060035403610620576040517f08c379a000000000000000000000000000000000000000000000000000000000815260040161061790611f2f565b60405180910390fd5b60005b828290508110156106f357600260009054906101000a900473ffffffffffffffffffffffffffffffffffffffff1673ffffffffffffffffffffffffffffffffffffffff1663bec4c08c60035485858581811061068257610681611f4f565b5b905060200201602081019061069791906119e6565b6040518363ffffffff1660e01b81526004016106b4929190611f7e565b600060405180830381600087803b1580156106ce57600080fd5b505af11580156106e2573d6000803e3d6000fd5b505050508080600101915050610623565b505050565b6000600260009054906101000a900473ffffffffffffffffffffffffffffffffffffffff1673ffffffffffffffffffffffffffffffffffffffff166341af6c87836040518263ffffffff1660e01b81526004016107559190611854565b602060405180830381865afa158015610772573d6000803e3d6000fd5b505050506040513d601f19601f820116820180604052508101906107969190611fd3565b9050919050565b6107a5611109565b600073ffffffffffffffffffffffffffffffffffffffff168173ffffffffffffffffffffffffffffffffffffffff1603610814576040517f08c379a000000000000000000000000000000000000000000000000000000000815260040161080b90612072565b60405180910390fd5b80600260006101000a81548173ffffffffffffffffffffffffffffffffffffffff021916908373ffffffffffffffffffffffffffffffffffffffff16021790555050565b600260009054906101000a900473ffffffffffffffffffffffffffffffffffffffff1673ffffffffffffffffffffffffffffffffffffffff163373ffffffffffffffffffffffffffffffffffffffff16146108e8576040517f08c379a00000000000000000000000000000000000000000000000000000000081526004016108df906120de565b60405180910390fd5b6108f3838383611199565b505050565b600160009054906101000a900473ffffffffffffffffffffffffffffffffffffffff1673ffffffffffffffffffffffffffffffffffffffff163373ffffffffffffffffffffffffffffffffffffffff1614610988576040517f08c379a000000000000000000000000000000000000000000000000000000000815260040161097f9061214a565b60405180910390fd5b60008060009054906101000a900473ffffffffffffffffffffffffffffffffffffffff169050336000806101000a81548173ffffffffffffffffffffffffffffffffffffffff021916908373ffffffffffffffffffffffffffffffffffffffff1602179055506000600160006101000a81548173ffffffffffffffffffffffffffffffffffffffff021916908373ffffffffffffffffffffffffffffffffffffffff1602179055503373ffffffffffffffffffffffffffffffffffffffff168173ffffffffffffffffffffffffffffffffffffffff167f8be0079c531659141344cd1fd0a4f28419497f9722a3daafe3b4186f6b6457e060405160405180910390a350565b610a95611109565b80600381905550807f5f479ac993925efae23839aa1c813b6ecb2fe1bbd14dc78295ab267d2fca436860405160405180910390a250565b60058060000160405180604001604052908160008201600280602002604051908101604052809291908260028015610b19576020028201915b815481526020019060010190808311610b05575b5050505050815260200160028201600280602002604051908101604052809291908260028015610b5e576020028201915b815481526020019060010190808311610b4a575b50505050508152505090806004018054610b7790612199565b80601f0160208091040260200160405190810160405280929190818152602001828054610ba390612199565b8015610bf05780601f10610bc557610100808354040283529160200191610bf0565b820191906000526020600020905b815481529060010190602001808311610bd357829003601f168201915b505050505090806005018054610c0590612199565b80601f0160208091040260200160405190810160405280929190818152602001828054610c3190612199565b8015610c7e5780601f10610c5357610100808354040283529160200191610c7e565b820191906000526020600020905b815481529060010190602001808311610c6157829003601f168201915b5050505050905083565b600080610cda8686868080601f016020809104026020016040519081016040528093929190818152602001838380828437600081840152601f19601f820116905080830192505050505050508561121d565b9050806004819055508260058181610cf2919061270f565b905050600454915050949350505050565b60008060009054906101000a900473ffffffffffffffffffffffffffffffffffffffff16905090565b600260009054906101000a900473ffffffffffffffffffffffffffffffffffffffff1681565b610d5a611109565b610d63816112ce565b50565b610d6e611109565b81610d776104f4565b1015610db8576040517f08c379a0000000000000000000000000000000000000000000000000000000008152600401610daf90612769565b60405180910390fd5b8073ffffffffffffffffffffffffffffffffffffffff166108fc839081150290604051600060405180830381858888f19350505050158015610dfe573d6000803e3d6000fd5b508073ffffffffffffffffffffffffffffffffffffffff167f7084f5476618d8e60b11ef0d7d3f06914655adb8793e28ff7f018d4c76d505d583604051610e459190611854565b60405180910390a25050565b610e59611109565b610e616113a7565b600381905550600260009054906101000a900473ffffffffffffffffffffffffffffffffffffffff1673ffffffffffffffffffffffffffffffffffffffff166395b55cfc346003546040518363ffffffff1660e01b8152600401610ec59190611854565b6000604051808303818588803b158015610ede57600080fd5b505af1158015610ef2573d6000803e3d6000fd5b5050505050565b6000600260009054906101000a900473ffffffffffffffffffffffffffffffffffffffff1673ffffffffffffffffffffffffffffffffffffffff1663cd802c91836040518263ffffffff1660e01b8152600401610f569190611854565b602060405180830381865afa158015610f73573d6000803e3d6000fd5b505050506040513d601f19601f82011682018060405250810190610f979190611fd3565b9050919050565b60003411610fe1576040517f08c379a0000000000000000000000000000000000000000000000000000000008152600401610fd8906127d5565b60405180910390fd5b3373ffffffffffffffffffffffffffffffffffffffff167f5af8184bef8e4b45eb9f6ed7734d04da38ced226495548f46e0c8ff8d7d9a524346040516110279190611854565b60405180910390a2565b6000806000806110868888888080601f016020809104026020016040519081016040528093929190818152602001838380828437600081840152601f19601f8201169050808301925050505050505087611514565b915091508160048190555084600581816110a0919061270f565b9050507f10c6f18fd89b9e0069dbc309830e486bcbe6f89db9aecb2727ba48f6a39bc68b8289836040516110d693929190612804565b60405180910390a1818193509350505094509492505050565b6110f7611109565b611100816116a5565b50565b600b5481565b60008054906101000a900473ffffffffffffffffffffffffffffffffffffffff1673ffffffffffffffffffffffffffffffffffffffff163373ffffffffffffffffffffffffffffffffffffffff1614611197576040517f08c379a000000000000000000000000000000000000000000000000000000000815260040161118e90612887565b60405180910390fd5b565b82600454146111dd576040517f08c379a00000000000000000000000000000000000000000000000000000000081526004016111d4906128f3565b60405180910390fd5b7f407ca0d5d3b1d0ad0127db91f2c97581bfbdf052e9bf99831d4b79470843c1f78383836040516112109392919061294f565b60405180910390a1505050565b6000600260009054906101000a900473ffffffffffffffffffffffffffffffffffffffff1673ffffffffffffffffffffffffffffffffffffffff1663062b1d908560035486866040518563ffffffff1660e01b81526004016112829493929190612b12565b6020604051808303816000875af11580156112a1573d6000803e3d6000fd5b505050506040513d601f19601f820116820180604052508101906112c59190612b7a565b90509392505050565b600060035403611313576040517f08c379a000000000000000000000000000000000000000000000000000000000815260040161130a90612bf3565b60405180910390fd5b600260009054906101000a900473ffffffffffffffffffffffffffffffffffffffff1673ffffffffffffffffffffffffffffffffffffffff16630ae09540600354836040518363ffffffff1660e01b8152600401611372929190611f7e565b600060405180830381600087803b15801561138c57600080fd5b505af11580156113a0573d6000803e3d6000fd5b5050505050565b600080600354146113ed576040517f08c379a00000000000000000000000000000000000000000000000000000000081526004016113e490612c5f565b60405180910390fd5b600260009054906101000a900473ffffffffffffffffffffffffffffffffffffffff1673ffffffffffffffffffffffffffffffffffffffff1663a21a23e46040518163ffffffff1660e01b81526004016020604051808303816000875af115801561145c573d6000803e3d6000fd5b505050506040513d601f19601f820116820180604052508101906114809190612b7a565b9050600260009054906101000a900473ffffffffffffffffffffffffffffffffffffffff1673ffffffffffffffffffffffffffffffffffffffff1663bec4c08c82306040518363ffffffff1660e01b81526004016114df929190611f7e565b600060405180830381600087803b1580156114f957600080fd5b505af115801561150d573d6000803e3d6000fd5b5050505090565b600080600260009054906101000a900473ffffffffffffffffffffffffffffffffffffffff1673ffffffffffffffffffffffffffffffffffffffff16634b160935866040518263ffffffff1660e01b81526004016115729190612c7f565b602060405180830381865afa15801561158f573d6000803e3d6000fd5b505050506040513d601f19601f820116820180604052508101906115b39190612b7a565b9050803410156115f8576040517f08c379a00000000000000000000000000000000000000000000000000000000081526004016115ef90612ce6565b60405180910390fd5b600260009054906101000a900473ffffffffffffffffffffffffffffffffffffffff1673ffffffffffffffffffffffffffffffffffffffff16637909dc7b348787876040518563ffffffff1660e01b815260040161165893929190612d06565b60206040518083038185885af1158015611676573d6000803e3d6000fd5b50505050506040513d601f19601f8201168201806040525081019061169b9190612b7a565b9150935093915050565b3373ffffffffffffffffffffffffffffffffffffffff168173ffffffffffffffffffffffffffffffffffffffff1603611713576040517f08c379a000000000000000000000000000000000000000000000000000000000815260040161170a90612d97565b60405180910390fd5b80600160006101000a81548173ffffffffffffffffffffffffffffffffffffffff021916908373ffffffffffffffffffffffffffffffffffffffff1602179055508073ffffffffffffffffffffffffffffffffffffffff1660008054906101000a900473ffffffffffffffffffffffffffffffffffffffff1673ffffffffffffffffffffffffffffffffffffffff167fed8889f560326eb138920d842192f0eb3dd22b4f139c87a2c57538e05bae127860405160405180910390a350565b600073ffffffffffffffffffffffffffffffffffffffff82169050919050565b60006117fc826117d1565b9050919050565b61180c816117f1565b82525050565b6000819050919050565b61182581611812565b82525050565b60006040820190506118406000830185611803565b61184d602083018461181c565b9392505050565b6000602082019050611869600083018461181c565b92915050565b600080fd5b600080fd5b600080fd5b600080fd5b600080fd5b60008083601f84011261189e5761189d611879565b5b8235905067ffffffffffffffff8111156118bb576118ba61187e565b5b6020830191508360208202830111156118d7576118d6611883565b5b9250929050565b600080602083850312156118f5576118f461186f565b5b600083013567ffffffffffffffff81111561191357611912611874565b5b61191f85828601611888565b92509250509250929050565b61193481611812565b811461193f57600080fd5b50565b6000813590506119518161192b565b92915050565b60006020828403121561196d5761196c61186f565b5b600061197b84828501611942565b91505092915050565b60008115159050919050565b61199981611984565b82525050565b60006020820190506119b46000830184611990565b92915050565b6119c3816117f1565b81146119ce57600080fd5b50565b6000813590506119e0816119ba565b92915050565b6000602082840312156119fc576119fb61186f565b5b6000611a0a848285016119d1565b91505092915050565b60008083601f840112611a2957611a28611879565b5b8235905067ffffffffffffffff811115611a4657611a4561187e565b5b602083019150836001820283011115611a6257611a61611883565b5b9250929050565b600080600060408486031215611a8257611a8161186f565b5b6000611a9086828701611942565b935050602084013567ffffffffffffffff811115611ab157611ab0611874565b5b611abd86828701611a13565b92509250509250925092565b600060029050919050565b600081905092915050565b6000819050919050565b611af281611812565b82525050565b6000611b048383611ae9565b60208301905092915050565b6000602082019050919050565b611b2681611ac9565b611b308184611ad4565b9250611b3b82611adf565b8060005b83811015611b6c578151611b538782611af8565b9650611b5e83611b10565b925050600181019050611b3f565b505050505050565b608082016000820151611b8a6000850182611b1d565b506020820151611b9d6040850182611b1d565b50505050565b600081519050919050565b600082825260208201905092915050565b60005b83811015611bdd578082015181840152602081019050611bc2565b60008484015250505050565b6000601f19601f8301169050919050565b6000611c0582611ba3565b611c0f8185611bae565b9350611c1f818560208601611bbf565b611c2881611be9565b840191505092915050565b600060c082019050611c486000830186611b74565b8181036080830152611c5a8185611bfa565b905081810360a0830152611c6e8184611bfa565b9050949350505050565b600063ffffffff82169050919050565b611c9181611c78565b8114611c9c57600080fd5b50565b600081359050611cae81611c88565b92915050565b600080fd5b600060c08284031215611ccf57611cce611cb4565b5b81905092915050565b60008060008060608587031215611cf257611cf161186f565b5b6000611d0087828801611c9f565b945050602085013567ffffffffffffffff811115611d2157611d20611874565b5b611d2d87828801611a13565b9350935050604085013567ffffffffffffffff811115611d5057611d4f611874565b5b611d5c87828801611cb9565b91505092959194509250565b6000602082019050611d7d6000830184611803565b92915050565b6000819050919050565b6000611da8611da3611d9e846117d1565b611d83565b6117d1565b9050919050565b6000611dba82611d8d565b9050919050565b6000611dcc82611daf565b9050919050565b611ddc81611dc1565b82525050565b6000602082019050611df76000830184611dd3565b92915050565b60008060408385031215611e1457611e1361186f565b5b6000611e2285828601611942565b9250506020611e33858286016119d1565b9150509250929050565b6000604082019050611e52600083018561181c565b611e5f602083018461181c565b9392505050565b600082825260208201905092915050565b7f737562206e6f7420736574000000000000000000000000000000000000000000600082015250565b6000611ead600b83611e66565b9150611eb882611e77565b602082019050919050565b60006020820190508181036000830152611edc81611ea0565b9050919050565b7f7375624944206e6f742073657400000000000000000000000000000000000000600082015250565b6000611f19600d83611e66565b9150611f2482611ee3565b602082019050919050565b60006020820190508181036000830152611f4881611f0c565b9050919050565b7f4e487b7100000000000000000000000000000000000000000000000000000000600052603260045260246000fd5b6000604082019050611f93600083018561181c565b611fa06020830184611803565b9392505050565b611fb081611984565b8114611fbb57600080fd5b50565b600081519050611fcd81611fa7565b92915050565b600060208284031215611fe957611fe861186f565b5b6000611ff784828501611fbe565b91505092915050565b7f43616e6e6f7420736574207a65726f20616464726573732061732073656e646560008201527f7200000000000000000000000000000000000000000000000000000000000000602082015250565b600061205c602183611e66565b915061206782612000565b604082019050919050565b6000602082019050818103600083015261208b8161204f565b9050919050565b7f4f6e6c7920626c6f636b6c6f636b20636f6e74726163742063616e2063616c6c600082015250565b60006120c8602083611e66565b91506120d382612092565b602082019050919050565b600060208201905081810360008301526120f7816120bb565b9050919050565b7f4d7573742062652070726f706f736564206f776e657200000000000000000000600082015250565b6000612134601683611e66565b915061213f826120fe565b602082019050919050565b6000602082019050818103600083015261216381612127565b9050919050565b7f4e487b7100000000000000000000000000000000000000000000000000000000600052602260045260246000fd5b600060028204905060018216806121b157607f821691505b6020821081036121c4576121c361216a565b5b50919050565b7f4e487b7100000000000000000000000000000000000000000000000000000000600052604160045260246000fd5b600060029050919050565b60008190506001806001038301049050919050565b6000819050919050565b600082821b905092915050565b6000600883026122607fffffffffffffffffffffffffffffffffffffffffffffffffffffffffffffffff82612223565b61226a8683612223565b95508019841693508086168417925050509392505050565b600061229d61229861229384611812565b611d83565b611812565b9050919050565b6000819050919050565b6122b783612282565b6122cb6122c3826122a4565b848454612230565b825550505050565b600090565b6122e06122d3565b6122eb8184846122ae565b505050565b5b8181101561230f576123046000826122d8565b6001810190506122f1565b5050565b600082821c905092915050565b818310156123595761233182612204565b61233a84612204565b61234383612219565b81810183820161235381836122f0565b50505050505b505050565b68010000000000000000821115612378576123776121ca565b5b612381816121f9565b61238c838284612320565b505050565b600060029050919050565b600081356123a98161192b565b80915050919050565b6000819050919050565b6123c582612391565b67ffffffffffffffff8111156123de576123dd6121ca565b5b6123e8818361235e565b6123f1836123b2565b6123fa83612219565b6001830460005b818110156124395760006124148561239c565b61241d816122a4565b8092506020870196505050808285015550600181019050612401565b50505050505050565b61244c82826123bc565b5050565b6000810160008301806124638184612442565b5050506002810160408301806124798184612442565b5050505050565b61248a8282612450565b5050565b600080fd5b600080fd5b600080fd5b600080833560016020038436030381126124ba576124b961248e565b5b80840192508235915067ffffffffffffffff8211156124dc576124db612493565b5b6020830192506001820236038313156124f8576124f7612498565b5b509250929050565b600082905092915050565b60008190508160005260206000209050919050565b60006020601f8301049050919050565b5b8181101561254f576125446000826122d8565b600181019050612531565b5050565b601f821115612594576125658161250b565b61256e84612520565b8101602085101561257d578190505b61259161258985612520565b830182612530565b50505b505050565b60006125aa60001984600802612313565b1980831691505092915050565b60006125c38383612599565b9150826002028217905092915050565b6125dd8383612500565b67ffffffffffffffff8111156125f6576125f56121ca565b5b6126008254612199565b61260b828285612553565b6000601f83116001811461263a5760008415612628578287013590505b61263285826125b7565b86555061269a565b601f1984166126488661250b565b60005b828110156126705784890135825560018201915060208501945060208101905061264b565b8683101561268d5784890135612689601f891682612599565b8355505b6001600288020188555050505b50505050505050565b6126ae8383836125d3565b505050565b6000810160008301806126c68184612480565b50505060048101608083016126db818561249d565b6126e68183866126a3565b505050506005810160a083016126fc818561249d565b6127078183866126a3565b505050505050565b61271982826126b3565b5050565b7f496e73756666696369656e742066756e647320696e20636f6e74726163740000600082015250565b6000612753601e83611e66565b915061275e8261271d565b602082019050919050565b6000602082019050818103600083015261278281612746565b9050919050565b7f596f75206d7573742073656e6420736f6d652045544800000000000000000000600082015250565b60006127bf601683611e66565b91506127ca82612789565b602082019050919050565b600060208201905081810360008301526127ee816127b2565b9050919050565b6127fe81611c78565b82525050565b6000606082019050612819600083018661181c565b61282660208301856127f5565b612833604083018461181c565b949350505050565b7f4f6e6c792063616c6c61626c65206279206f776e657200000000000000000000600082015250565b6000612871601683611e66565b915061287c8261283b565b602082019050919050565b600060208201905081810360008301526128a081612864565b9050919050565b7f496e76616c696420726571756573742069642e00000000000000000000000000600082015250565b60006128dd601383611e66565b91506128e8826128a7565b602082019050919050565b6000602082019050818103600083015261290c816128d0565b9050919050565b82818337600083830152505050565b600061292e8385611bae565b935061293b838584612913565b61294483611be9565b840190509392505050565b6000604082019050612964600083018661181c565b8181036020830152612977818486612922565b9050949350505050565b600082905092915050565b600082905092915050565b82818337505050565b6129ac60408383612997565b5050565b608082016129c1600083018361298c565b6129ce60008501826129a0565b506129dc604083018361298c565b6129e960408501826129a0565b50505050565b600080fd5b600080fd5b600080fd5b60008083356001602003843603038112612a1b57612a1a6129f9565b5b83810192508235915060208301925067ffffffffffffffff821115612a4357612a426129ef565b5b600182023603831315612a5957612a586129f4565b5b509250929050565b600082825260208201905092915050565b6000612a7e8385612a61565b9350612a8b838584612913565b612a9483611be9565b840190509392505050565b600060c08301612ab26000840184612981565b612abf60008601826129b0565b50612acd60808401846129fe565b8583036080870152612ae0838284612a72565b92505050612af160a08401846129fe565b85830360a0870152612b04838284612a72565b925050508091505092915050565b6000608082019050612b2760008301876127f5565b612b34602083018661181c565b8181036040830152612b468185611bfa565b90508181036060830152612b5a8184612a9f565b905095945050505050565b600081519050612b748161192b565b92915050565b600060208284031215612b9057612b8f61186f565b5b6000612b9e84828501612b65565b91505092915050565b7f537562736372697074696f6e4964206973207a65726f00000000000000000000600082015250565b6000612bdd601683611e66565b9150612be882612ba7565b602082019050919050565b60006020820190508181036000830152612c0c81612bd0565b9050919050565b7f537562736372697074696f6e4964206973206e6f74207a65726f000000000000600082015250565b6000612c49601a83611e66565b9150612c5482612c13565b602082019050919050565b60006020820190508181036000830152612c7881612c3c565b9050919050565b6000602082019050612c9460008301846127f5565b92915050565b7f496e73756666696369656e742045544800000000000000000000000000000000600082015250565b6000612cd0601083611e66565b9150612cdb82612c9a565b602082019050919050565b60006020820190508181036000830152612cff81612cc3565b9050919050565b6000606082019050612d1b60008301866127f5565b8181036020830152612d2d8185611bfa565b90508181036040830152612d418184612a9f565b9050949350505050565b7f43616e6e6f74207472616e7366657220746f2073656c66000000000000000000600082015250565b6000612d81601783611e66565b9150612d8c82612d4b565b602082019050919050565b60006020820190508181036000830152612db081612d74565b905091905056fea26469706673582212208bf85a5f6141f140db65e3092843e56d739c76d0bce74e226f1e94b50ec78bc564736f6c634300081a0033",
  "linkReferences": {},
  "deployedLinkReferences": {}
}